:020000040800F2
:10000000880C0020A1010008CD300008992C0008C0
:10001000C930000801080008DD33000800000000B6
:10002000000000000000000000000000D1300008C7
:10003000A508000800000000CF300008D3300008F9
:10004000BB010008BB010008BB010008BB010008A0
:10005000BB010008BB010008BB010008BB01000890
:10006000BB010008BB010008BB010008050800082F
:10007000150800082508000835080008450800088C
:100080005508000865080008BB010008BB0100080E
:10009000BB010008BB010008BB010008BB01000850
:1000A000BB010008BB010008BB010008BB01000840
:1000B000BB01000841310008BB010008AD2C00085D
:1000C0009D2C0008BB010008BB010008BB01000813
:1000D000BB010008ED32000855330008CD3300089D
:1000E000BB010008BB010008BB010008BB01000800
:1000F000BB010008BB010008BB010008750800082F
:10010000BB010008BB010008BB010008BB010008DF
:10011000DD320008BB010008BB010008BB0100087C
:10012000BB010008BB01000885080008BB010008EE
:10013000BB010008BB010008BB010008BB010008AF
:10014000BB010008BB010008BB010008BB0100089F
:10015000BB010008BB01000895080008BB010008AE
:10016000BB010008BB010008BB010008BB0100087F
:10017000BB010008BB010008BB0100080000000033
:10018000BB010008BB010008DFF810D000F026FB1F
:1001900000F05CF800480047AD510008880C0020D2
:1001A0000648804706480047FEE7FEE7FEE7FEE711
:1001B000FEE7FEE7FEE7FEE7FEE7FEE7DD300008CC
:1001C000890100082DE9F05F0546002092469B4614
:1001D00088460646814640241BE02846414647465D
:1001E000224600F045FA53465A46C01A914110D3B0
:1001F00011461846224600F02CFA2D1A67EB01082A
:100200004F4622460120002100F023FA17EB000997
:100210004E41201EA4F10104DFDC484631462A4647
:100220004346BDE8F09FD2B201E000F8012B491E21
:10023000FBD270470022F6E710B513460A46044683
:100240001946FFF7F0FF204610BD000070B5054CC1
:10025000054D03E0206820448047241DAC42F9D1BD
:1002600070BD0000E4520008E85200082DE9FE4F7E
:10027000804681EA0300C00F0C46009021F0004147
:1002800023F00045B8EB0200A94105D240462146C3
:1002900090461C460B46024623F00040104347D0D0
:1002A000270DC7F30A00C3F30A510290401A0190C8
:1002B00040286BDAC3F3130040F4801B0098924689
:1002C00020B10023D2EB030A63EB0B0B01985946D4
:1002D000C0F14002504600F0BCF906460D465046BB
:1002E0005946019A00F0D4F910EB0800614100244E
:1002F00087EA115284EAE7731A4340D0009A62B346
:10030000019A012A4FEA075215DC001B61EB02013A
:100310004FF0004202EA0752CDE90042001C41F5CD
:10032000801132462B4600F00BFA03B0BDE8F08F87
:1003300040462146F9E7001B61EB0201001C41F534
:10034000801300185B412018A2F5001747EB03014A
:1003500040EAD570B6196D4111E06D084FEA3606D6
:1003600045EAC0754FEA0752001B61EB0201001C11
:1003700041F5801149084FEA3000001951413246D9
:100380002B4603B0BDE8F04F00F0CBB90098012236
:1003900040000023D0EB020263EBE073009821469B
:1003A0004FEAE074B8EB000061EB0401E9E783F089
:1003B00000435BE781F0004158E72DE9FE4F81EAF9
:1003C000030404F0004421F0004100944FF0000BBE
:1003D00023F0004350EA01045ED052EA03045BD0EC
:1003E000C3F30A54C1F30A552C44A4F2F334019424
:1003F000A0FB0254C1F3130141F48011C3F31303B2
:1004000043F4801301FB024400FB034E840A970A65
:1004100044EA815447EA8357A4FB076802958D0A92
:1004200005FB07854FEA932C04FB0C542705029D1E
:100430004FEA065847EA1637B5EB08056EEB070C8E
:10044000870E920E47EA811742EA8312A7FB020148
:10045000B6EB0B0164EB00042B0D43EA0C335E1882
:1004600044EB1C50DA465146E7FB0201C5F3130486
:100470004FEA0B3343EA14534FEA0432019C43EA38
:100480000603A4F10C040294009CCDE900B400F032
:1004900057F903B0BDE8F08F00200146F9E72DE9D8
:1004A000F04D81EA030404F0004B21F000451446AE
:1004B0004FF0000A23F0004150EA050220D054EA30
:1004C00001021DD0C5F30A570246C5F31303C1F359
:1004D0001300C1F30A5640F4801543F48013A7EBD0
:1004E0000608101BD64608F2FD3873EB050002D350
:1004F00008F1010801E092185B41B8F1000F03DA3E
:1005000000200146BDE8F08D00204FF48011064622
:1005100084460EE0171B73EB050705D3121B63EB34
:10052000050306434CEA010C49084FEA30009218D3
:100530005B4150EA0107EDD152EA030012D082EA92
:10054000040083EA0501084305D0101BAB4106D225
:100550000122002306E000224FF0004302E06FF08A
:10056000010253101AEB06004CEB085110EB0A0085
:1005700041EB0B01BDE8F04D00F0D3B80EB540F2F1
:10058000334102910021CDE900110A460B4600F0EB
:10059000D7F803B000BDC1F30A5210B5C1F313017F
:1005A00040F2FF3341F480119A4201DA002010BD7D
:1005B00040F233439A42A2F2334203DC524200F04B
:1005C00057F810BD904010BD00F0004230F00040E0
:1005D0000AD0C10D01F56071C0F3160042EA015165
:1005E000C20840071143704700200146704701F0E0
:1005F000004330B421F0004150EA010206D00A0D58
:10060000A2F56072C1F31301002A02DC30BC0020A5
:100610007047440F44EAC104C100E01830BC00EB4D
:10062000C25000F047B830B50B46014600202022EA
:10063000012409E021FA02F59D4205D303FA02F5EF
:10064000491B04FA02F52844151EA2F10102F1DC4F
:1006500030BD202A04DB203A00FA02F10020704766
:100660009140C2F1200320FA03F3194390407047F0
:10067000202A04DB203A21FA02F00021704721FAF7
:1006800002F3D040C2F1200291400843194670475E
:10069000202A06DBCB17203A41FA02F043EAE07346
:1006A00006E041FA02F3D040C2F120029140084333
:1006B000194670470029A8BF7047401C490008BF71
:1006C00020F00100704710B4B0FA80FC00FA0CF082
:1006D00050EA010404BF10BC704749B1CCF12004BA
:1006E00021FA04F411FA0CF118BF01212143084347
:1006F000A3EB0C01CB1D4FEA00614FEA102042BF73
:10070000002010BC704700EBC35010440029A4BF68
:1007100010BC7047401C490008BF20F0010010BC0D
:10072000704710B5141E73F1000408DA401C41F143
:10073000000192185B411A4301D120F0010010BD65
:100740002DE9F04D92469B4611B1B1FA81F202E0DB
:10075000B0FA80F220329046FFF77BFF04460F4646
:1007600040EA0A0041EA0B0153465A46084313D0B7
:10077000114653EA010019D0C8F140025046FFF774
:1007800077FF05460E46504659464246FFF761FF41
:10079000084305D0012004E020463946BDE8F08D2D
:1007A0000020054346EAE0762C4337430A98630568
:1007B000E40AA0EB08000022FD0A44EA47540A308C
:1007C00002D500200146E9E7010510196941DDE97C
:1007D000084500196941BDE8F04DA2E7064C074DF8
:1007E00006E0E06840F0010394E807009847103401
:1007F000AC42F6D3FFF7CCFCC4520008E452000828
:1008000000BFFEE710B5024800F0BCF810BD0000C4
:10081000D800002010B5024800F0B4F810BD000068
:10082000C805002010B5024800F0ACF810BD00006B
:100830008803002010B5024800F0A4F810BD0000A5
:100840002806002010B5024800F09CF810BD0000FA
:10085000E803002010B5024800F094F810BD000035
:100860000805002010B5024800F08CF810BD00000B
:100870006805002010B5024800F084F810BD0000A3
:100880003801002010B5024800F07CF810BD0000CF
:100890004804002010B5024800F074F810BD0000B4
:1008A000A80400207047704770B50446A56D00F09D
:1008B00055FB064694F83500022808D08020606574
:1008C00000BF002084F8340000BF012070BD206804
:1008D000006820F01600216808602068406920F058
:1008E000800021684861206C08B9A06C28B120689C
:1008F000006820F00800216808602068006820F087
:100900000100216808600FE000F028FB801B05282B
:100910000AD92020606500BF002084F8340000BFA1
:10092000032084F83500D1E72068006800F001005A
:100930000028E9D194F85C103F208840A86000BFEF
:10094000002084F8340000BF012084F83500002026
:10095000BCE7014691F83500022803D080204865A5
:1009600001207047052081F835000868006820F0F4
:1009700001000A6810600020F3E7014691F8350095
:1009800070470000F8B50446002000908C480068CD
:100990004FF41651B0FBF1F7A56D2E6894F85C107A
:1009A00008208840304098B12068006800F00400BA
:1009B00070B12068006820F004002168086094F895
:1009C0005C1008208840A860606D40F00100606500
:1009D00094F85C1001208840304068B1206840697C
:1009E00000F0800040B194F85C1001208840A860BD
:1009F000606D40F00200606594F85C10042088404F
:100A0000304068B12068006800F0020040B194F8FE
:100A10005C1004208840A860606D40F004006065B0
:100A200094F85C1010208840304078B3206800684B
:100A300000F0080050B394F85C1010208840A860C3
:100A40002068006800F4802080B12068006800F40D
:100A5000002028B9206CC8B12046216C884715E0D9
:100A6000A06C98B12046A16C88470FE02068006810
:100A700000F4807028B92068006820F00800216820
:100A80000860206C10B12046216C884794F85C10F7
:100A9000202088403040002865D02068006800F0A1
:100AA000100000285FD094F85C1020208840A860D7
:100AB00094F83500052828D12068006820F0160039
:100AC000216808602068406920F080002168486142
:100AD000206C08B9A06C28B12068006820F00800DC
:100AE0002168086094F85C103F208840A86000BF2F
:100AF000002084F8340000BF012084F83500206D08
:100B000010B12046216D8847F8BD2068006800F4C8
:100B1000802080B12068006800F4002028B9606C53
:100B200010B12046616C88471DE0E06BD8B12046CB
:100B3000E16B884717E02068006800F4807068B9AE
:100B40002068006820F010002168086000BF0020C5
:100B500084F8340000BF012084F83500E06B10B148
:100B60002046E16B8847606D38B3606D00F001008E
:100B7000F0B1052084F835002068006820F00100FD
:100B80002168086000BF0098401C0090B84200D95E
:100B900005E02068006800F001000028F3D100BFE4
:100BA00000BF002084F8340000BF012084F8350025
:100BB000E06C10B12046E16C884700BFA4E700005C
:100BC000140000202DE9F0410446002500F0C6F98C
:100BD000074614B90120BDE8F081606A00B100BF8A
:100BE00000BF002084F8340000BF022084F83500E4
:100BF0002068006820F00100216808600AE000F029
:100C0000ADF9C01B052805D920206065032084F8B4
:100C10003500E0E72068006800F001000028EED110
:100C20002068056821480540D4E901010843E168CE
:100C300008432169084361690843A1690843E169E0
:100C40000843216A08430543606A042803D1D4E9B4
:100C50000B0108430543206805602068456925F0BD
:100C60000705606A0543606A04280DD1A06A054340
:100C7000E06A48B1204602F0DDFE28B14020606500
:100C8000012084F83500A6E720684561204602F07F
:100C900027FF064694F85C103F208840B060002093
:100CA0006065012084F83500002094E73F8010F053
:100CB0002DE9F04704460D4616461F464FF0000842
:100CC000D4F8589000BF94F83400012802D10220D3
:100CD000BDE8F087012084F8340000BF94F83500A7
:100CE00001282BD1022084F83500002060653B46A6
:100CF00032462946204602F087FE94F85C103F20D9
:100D00008840C9F808002068006840F01600216893
:100D100008602068406940F0800021684861206CCC
:100D200028B12068006840F0080021680860206849
:100D3000006840F001002168086006E000BF002064
:100D400084F8340000BF4FF002084046C0E70000BE
:100D5000F8B502460B460025002400200021DCE007
:100D6000012606FA01F51E6806EA0504AC4273D1B5
:100D70005E68022E02D05E68122E13D1CF0802F1F7
:100D8000200656F827004E07F70E0F26BE40B04348
:100D90004F07FF0E1E69BE403043CF0802F1200608
:100DA00046F8270010684F000326BE40B0431E7966
:100DB00006F003064F00BE40304310605E68012E0F
:100DC00008D05E68022E05D05E68112E02D05E68E3
:100DD000122E13D190684F000326BE40B0434F003F
:100DE000DE68BE4030439060506801268E40B043BC
:100DF0001E79C6F300168E4030435060D0684F0015
:100E00000326BE40B0434F009E68BE403043D060D2
:100E10005E6806F08056B6F1805F7DD100BF002687
:100E20000096404E366846F480463E4F3E603E4651
:100E3000366806F48046009600BF00BF3A4E8F0821
:100E400056F827008E07370F0F26BE40B043374EA7
:100E5000B24202D1002624E05EE0354EB24201D11A
:100E600001261EE0334EB24201D1022619E0324E75
:100E7000B24201D1032614E0304EB24201D1042621
:100E80000FE02F4EB24201D105260AE02D4EB242AC
:100E900001D1062605E02C4EB24201D1072600E022
:100EA00008268F073F0FBE4030431F4E8F0846F87D
:100EB0002700264E3068A0435E6806F48036B6F5FB
:100EC000803F00D12043214E3060361D3068A04362
:100ED0005E6806F40036B6F5003F00D120431B4E95
:100EE000361D3060361D3068A0435E6806F48016FB
:100EF000B6F5801F00D12043144E08363060361DF1
:100F00003068A0435E6806F40016B6F5001F00D1F5
:100F100020430E4E0C363060491C1029FFF420AFE0
:100F2000F8BD00004438024008380140000002408B
:100F30000004024000080240000C02400010024081
:100F40000014024000180240001C0240003C014016
:100F50000AB1816101E00B048361704701480068B8
:100F60007047000008000020704770472DE9F05FCF
:100F70000446206847692068D0F804800025C7F33C
:100F8000002040B1C8F3002028B145F001056FF4FE
:100F9000807021684861C7F3402040B1C8F3002049
:100FA00028B145F002056FF4007021684861C7F36D
:100FB000802068B3C8F3002050B394F83E90B4F892
:100FC0002AA094F83D60D4F830B0B9F1200F0FD1C9
:100FD000BAF1000F0CD1212E06D0292E04D0282ED4
:100FE00006D1BBF1210F03D1204602F0A1FE0FE094
:100FF0006FF480602168486145F0040594F83E0074
:10100000102805D12068006840F40070216808604D
:10101000C7F3C02040B1C8F3002028B145F008054F
:101020006FF40060216848612DB1206C2843206472
:10103000204602F06FFDBDE8F09F2DE9F047054620
:10104000002728684668D5F82C8095F83E9095F8DA
:101050003DA0B9F1100F02D0B9F1400F78D1286846
:1010600087692868446904F0010060B9B8F52A0F5F
:1010700002D0B8F12A4F01D1012000E00020012860
:1010800001D1BDE8F08704F0010048B1C6F340206B
:1010900030B1284603F068FB284602F099FEACE028
:1010A000C4F3C00030B1C6F3402018B1284603F0A5
:1010B0000BF9A2E0C4F3400030B1C6F3402018B1F0
:1010C000284602F007FF98E0C7F38000F8B12868CF
:1010D000406800F40060B0F5006FE0D0C4F3C010C9
:1010E00048B1C6F3802030B1C4F3800018B9284657
:1010F00003F094FA81E0C4F3800000287DD0C6F3A9
:101100004020002879D0284603F038FA75E0286896
:10111000406800F40060B0F5006F6ED0C4F380103A
:1011200048B1C6F3802030B1C4F3800018B9284616
:1011300003F0D2F961E0C4F3800000285DD0C6F36B
:101140004020002859D0284603F0E0F855E0FFE79A
:10115000286C10B12868446903E02868876928680A
:101160004469C4F3400058B1C6F3402040B1286C34
:1011700008B1286887693946284602F078FE3CE0C5
:10118000C4F3001030B1C6F3402018B1284602F075
:10119000D5FF32E0BAF1210F02D0BAF1290F16D1F2
:1011A000C4F3C01048B1C6F3802030B1C4F380004E
:1011B00018B9284603F06DF91FE0C4F38000E0B1D0
:1011C000C6F34020C8B1284603F056F915E0C4F331
:1011D000801048B1C6F3802030B1C4F3800018B944
:1011E000284603F026F908E0C4F3800028B1C6F3CE
:1011F000402010B1284603F07CF800BF41E770475B
:1012000070B504460CB9012070BD94F83D0028B9B2
:10121000002084F83C00204600F0D4F8242084F814
:101220003D002068006820F001002168086000F09F
:10123000FBFA05465C496068884206D85B488542EF
:1012400001D2012007E0002005E05948854201D283
:10125000012000E00020012800D1D5E75548B5FB6A
:10126000F0F62068406820F03F0030432168486075
:101270004D496068884201D8701C07E04FF49670B1
:1012800070434FF47A71B0FBF1F0401C2168096A99
:1012900021F03F01084321680862434960688842A1
:1012A00014D8681E61684900B0FBF1F0401CC0F31F
:1012B0000B00042801D204203DE0681E616849004B
:1012C000B0FBF1F0401CC0F30B0034E0A06838B96B
:1012D000681E616801EB4101B0FBF1F0401C0AE0BF
:1012E000681E616801EBC10202EB0111B0FBF1F075
:1012F000401C40F48040C0F30B0008B901201AE004
:10130000A06848B9681E616801EB4101B0FBF1F0CB
:10131000401CC0F30B000CE0681E616801EBC102C9
:1013200002EB0111B0FBF1F0401CC0F30B0040F4E4
:10133000804040F400402168C9694CF6FF72914337
:1013400008432168C861D4E9070108432168096896
:1013500021F0C001084321680860D4E90310084364
:101360002168896848F2FF32914308432168886008
:10137000D4E9050108432168C96821F0FF01084349
:101380002168C8602068006840F00100216808609A
:1013900000202064202084F83D000020206384F891
:1013A0003E0000BF30E70000A086010080841E00E0
:1013B00000093D0040420F0070477047704770477A
:1013C0007047000010B586B00446142101A8FEF74E
:1013D00031FF4049206888427AD100BF0020009048
:1013E0003D48006840F002003B490860084600683C
:1013F00000F00200009000BF00BFC020019012204A
:10140000029001200390032004900420059001A97C
:101410003248FFF79DFC00BF002000902E4810309E
:10142000006840F400102C4910310860084600683C
:1014300000F40010009000BF00BF2948294908604F
:1014400040054860002127488160C1604FF48061F9
:101450000161002141618161C16101624162FFF767
:10146000B1FB08B1FFF71FFA00BF1E48A0638463F9
:1014700000BF1B48A8301C4908604FF0007048604E
:101480004021194881600021C1604FF480610161F1
:10149000002141618161C16101624162FFF792FBFC
:1014A00008B1FFF700FA00BF0F486063846300BF14
:1014B000002211461F2000F09FF81F2000F08CF83A
:1014C00000221146202000F097F8202000F084F838
:1014D00006B010BD00540040303802400004024005
:1014E00010600240D800002038010020704770478B
:1014F00003480068034909780844014908607047B7
:10150000080000201000002010B50D48006840F4CD
:1015100000700B4908600846006840F4806008606D
:101520000846006840F480700860032000F0A2F8CC
:10153000002000F007F800F02BF8002010BD00009C
:10154000003C024070B504460E4800784FF47A71B2
:10155000B1FBF0F00C490968B1FBF0F5284600F04A
:10156000FFFB08B1012070BD102C07D200222146DC
:10157000501E00F041F80548046001E00120F2E748
:101580000020F0E710000020140000200C000020D4
:1015900008B500BF002000900E48006840F480406D
:1015A0000C4908600846006800F48040009000BFC5
:1015B00000BF00BF00200090081F006840F080506E
:1015C000091F08600846006800F08050009000BFC6
:1015D00000BF08BD4438024001460846002809DB28
:1015E00000F01F0301229A4043099B0003F1E0230E
:1015F000C3F8002100BF70472DE9F05F80460D461B
:101600001646002703F098FC074639462A4633461B
:1016100001F00700C0F1070ABAF1040F02D94FF038
:10162000040A01E0C0F1070AD14600F1040ABAF148
:10163000070F02D24FF0000A01E0A0F1030AD446DE
:101640004FF0010A0AFA09FAAAF1010A0AEA020AA3
:101650000AFA0CFA4FF0010B0BFA0CFBABF1010B81
:101660000BEA030B4AEA0B042146404603F050FC08
:10167000BDE8F09F00BF00F00702064B19684FF667
:10168000FF031940044B0B4343EA0221014B19604D
:1016900000BF70470CED00E00000FA0570B504468D
:1016A0000D460CB9012070BD5848006800F00F00CD
:1016B000A84209D255490D700846006800F00F0095
:1016C000A84201D00120EEE7207800F002000228B5
:1016D0001DD1207800F00400042805D14C48006892
:1016E00040F4E0504A490860207800F008000828DB
:1016F00005D14748006840F46040454908604448C7
:10170000006820F0F000A168084341490860207893
:1017100000F00100A8B36068012807D13C480838F0
:101720000068C0F34040B8B90120BCE760680228F7
:1017300002D06068032807D1354808380068C0F334
:10174000406048B90120AEE7314808380068C0F36E
:10175000400008B90120A6E72D48006820F00300EA
:10176000616808432A490860FFF7F8FB064609E06C
:10177000FFF7F4FB801B41F28831884202D9032035
:1017800091E707E02248006800F00C006168B0EBC8
:10179000810FEDD11D48006800F00F00A84209D963
:1017A0001A490D700846006800F00F00A84201D0E9
:1017B000012078E7207800F00400042807D11448BD
:1017C000006820F4E050E16808431149086020787F
:1017D00000F00800082808D10D48006820F4604097
:1017E000216940EAC1000A49086000F03DF8084953
:1017F0000968C1F30311074A515CC84006490860F3
:101800000020FFF79FFE00204DE70000003C024053
:1018100008380240AC52000814000020014800685B
:10182000704700001400002000B5FFF7F7FF0449DF
:101830000968C1F38221034A515CC84000BD000021
:1018400008380240BC52000800B5FFF7E7FF044922
:101850000968C1F34231034A515CC84000BD000031
:1018600008380240BC5200082DE9F047002400254A
:101870000026A1462548006800F00C0020B104288D
:1018800005D008283AD105E0DFF8849039E0DFF888
:10189000849036E01D48001F006800F03F041B489C
:1018A000001F006800F4800078B11A481749091F2A
:1018B0000968C1F38811A0FB01700146224600238C
:1018C0003846FEF77FFC05460EE011480F49091F18
:1018D0000968C1F38811A0FB01700146224600236C
:1018E0003846FEF76FFC05460848001F0068C0F345
:1018F0000140401C4600B5FBF6F902E0DFF810900D
:1019000000BF00BF4846BDE8F0870000083802402D
:101910000024F40000127A00F8B504460CB9012046
:10192000F8BD207800F00100002874D0F948006864
:1019300000F00C0004280DD0F648006800F00C0000
:10194000082813D1F348001F006800F48000B0F5A8
:10195000800F0BD1EF4808380068C0F340400028E2
:1019600059D06068002856D10120D9E700BF6068CF
:10197000B0F5803F08D1E7480838006840F480306F
:10198000E449083908601EE06068B0F5A02F0DD169
:10199000E0480838006840F48020DE4908390860D3
:1019A0000846006840F4803008600CE0D9480838E8
:1019B000006820F48030D74908390860084600687C
:1019C00020F48020086000BF606890B1FFF7C6FA7D
:1019D000054606E0FFF7C2FA401B642801D9032040
:1019E0009EE7CC4808380068C0F340400028F1D09A
:1019F00011E0FFF7B3FA054606E0FFF7AFFA401B28
:101A0000642801D903208BE7C24808380068C0F376
:101A100040400028F1D1207800F0020002285FD178
:101A2000BC48006800F00C0058B1BA48006800F0EB
:101A30000C0008281CD1B748001F006800F4800083
:101A4000B0B9B44808380068C0F3400020B1E0687D
:101A5000012801D0012063E7AE480838006820F073
:101A6000F800216940EAC100AA490839086037E056
:101A7000E06800B30120A8490860FFF76FFA054647
:101A800006E0FFF76BFA401B022801D9032047E765
:101A9000A04808380068C0F340000028F1D09D48F5
:101AA0000838006820F0F800216940EAC10099492F
:101AB0000839086014E0002097490860FFF74EFAE3
:101AC000054606E0FFF74AFA401B022801D9032029
:101AD00026E7904808380068C0F340000028F1D19C
:101AE000207800F0080008282CD16069A8B10120F6
:101AF0008A490860FFF732FA054606E0FFF72EFA3A
:101B0000401B022801D903200AE782486C30006894
:101B1000C0F340000028F1D014E000207F490860A5
:101B2000FFF71CFA054606E0FFF718FA401B0228EB
:101B300001D90320F4E677486C300068C0F3400018
:101B40000028F1D1207800F00400042870D100268C
:101B500070483830006800F0805090B900BF002015
:101B600000906C483830006840F080506949383146
:101B700008600846006800F08050009000BF00BF79
:101B800001266748006800F48070B0B964480068B6
:101B900040F4807062490860FFF7E0F9054606E00E
:101BA000FFF7DCF9401B022801D90320B8E65C48A6
:101BB000006800F480700028F2D000BFA0680128FF
:101BC00008D154486830006840F00100514968313C
:101BD00008601DE0A06805280DD14E4868300068F7
:101BE00040F004004B49683108600846006840F046
:101BF000010008600CE047486830006820F00100F0
:101C00004449683108600846006820F00400086014
:101C100000BFA068A8B1FFF7A1F9054609E0FFF7EA
:101C20009DF9401B41F28831884202D9032077E6B2
:101C300026E0384868300068C0F340000028EED045
:101C400013E0FFF78BF9054608E0FFF787F9401B23
:101C500041F28831884201D9032061E62D4868307D
:101C60000068C0F340000028EFD1012E07D12948B9
:101C70003830006820F0805026493831086000BFB5
:101C8000A069B8B32348006800F00C0008285ED0B3
:101C9000A069022846D100201F490866FFF75EF9B7
:101CA000054606E0FFF75AF9401B022801D9032038
:101CB00036E6184808380068C0F340600028F1D1C3
:101CC000D4E907010843616A40EA81110122A06A50
:101CD000C2EB500041EA00412C20005D41EA006067
:101CE0000C49091F086001200B490866FFF736F907
:101CF000054607E02DE0FFF731F9401B022801D926
:101D000003200DE6034808380068C0F3406000284F
:101D1000F1D01EE00838024000004742800E4742E2
:101D20000070004000200C490866FFF717F90546CF
:101D300006E0FFF713F9401B022801D90320EFE565
:101D400006480068C0F340600028F2D101E001209D
:101D5000E6E50020E4E500000000474200380240CC
:101D600070B504462546681EB0F1807F01D301207E
:101D70000FE0681E4FF0E02148610F214FF0FF3067
:101D800003F0C6F800204FF0E021886107200861C9
:101D9000002070BD7047704710B5024600BF92F832
:101DA0003C00012801D1022010BD012082F83C0036
:101DB00000BF022082F83D00106843681068846804
:101DC00023F070030868034324F080044868044348
:101DD0001068436010688460012082F83D0000BFF5
:101DE000002082F83C0000BF00BFDDE710B50446CC
:101DF0000CB9012010BD94F83D0028B9002084F8EA
:101E00003C00204600F00CF8022084F83D00211D23
:101E1000206801F09DF9012084F83D000020E9E7E9
:101E200038B504460E492068884217D100BF00200B
:101E300000900C48006840F002000A49086008461B
:101E4000006800F00200009000BF00BF00221146B1
:101E50001D20FFF7D1FB1D20FFF7BEFB38BD0000A2
:101E600000040040403802402DE9F04104460D4690
:101E700000BF94F83C00012802D10220BDE8F081A7
:101E8000012084F83C0000BF022084F83D00206857
:101E9000866826F0770626F47F46206886602868E4
:101EA000502833D00CDC202850D004DC00284BD044
:101EB000102851D149E0302849D040284CD139E090
:101EC00060282DD0702807D0B0F5805F03D0B0F522
:101ED000005F41D10DE040E0D5E902136A68206857
:101EE00001F0B3F92068866846F0770620688660BE
:101EF00033E0D5E902136A68206801F0A6F920688A
:101F0000806840F480402168886026E0EA6869685B
:101F1000206802F0DEFC5021206802F0D1FC1CE0B9
:101F2000EA686968206802F0E7FC6021206802F036
:101F3000C7FC12E0EA686968206802F0CAFC402128
:101F4000206802F0BDFC08E000BF00BF00BF2968A8
:101F5000206802F0B5FC00E000BF00BF012084F85B
:101F60003D0000BF002084F83C0000BF00BF85E7B3
:101F7000704710B5044620680069C0F34000D8B12E
:101F80002068C068C0F34000B0B16FF00200216863
:101F90000861012020772068806900F0030018B1F3
:101FA0002046FFF7E5FF05E0204600F0FBF820465D
:101FB00000F098F90020207720680069C0F38000C5
:101FC000D8B12068C068C0F38000B0B16FF00400E1
:101FD00021680861022020772068806900F4407041
:101FE00018B12046FFF7C4FF05E0204600F0DAF8FC
:101FF000204600F077F90020207720680069C0F3C0
:10200000C000D8B12068C068C0F3C000B0B16FF0A4
:10201000080021680861042020772068C06900F06A
:10202000030018B12046FFF7A3FF05E0204600F0AB
:10203000B9F8204600F056F90020207720680069A2
:10204000C0F30010D8B12068C068C0F30010B0B170
:102050006FF0100021680861082020772068C069AF
:1020600000F4407018B12046FFF782FF05E02046DB
:1020700000F098F8204600F035F90020207720681D
:10208000006900F0010058B12068C06800F001004C
:1020900030B16FF0010021680861204600F050F96E
:1020A00020680069C0F3C01058B12068C068C0F350
:1020B000C01030B16FF08000216808612046FFF742
:1020C00069FE20680069C0F3801058B12068C068BC
:1020D000C0F3801030B16FF04000216808612046E5
:1020E00000F02FF920680069C0F3401058B1206853
:1020F000C068C0F3401030B16FF020002168086163
:102100002046FFF748FE10BD10B586B004461421E6
:1021100001A8FEF78FF81F492068884238D100BF18
:10212000002000901C48006840F001001A49086037
:102130000846006800F00100009000BF00BF00BF2B
:10214000002000900846006840F002000860084641
:10215000006800F00200009000BF00BFC0200190A6
:10216000022002900020039004900220059001A913
:102170000A48FEF7EDFD03200190022002900020A6
:10218000039004900220059001A90548FEF7E0FDA8
:1021900006B010BD0004004030380240000002408C
:1021A00000040240704770B504460D46164600BF55
:1021B00094F83C00012801D1022070BD012084F870
:1021C0003C0000BF022084F83D0036B1042E1BD035
:1021D000082E31D00C2E5ED145E02946206802F051
:1021E000D1FA2068806940F0080021688861206881
:1021F000806920F00400216888612068806929696D
:1022000008432168886147E02946206801F028F8E2
:102210002068806940F400602168886120688069D6
:1022200020F480602168886120688069296940EA1B
:102230000120216888612FE02946206802F0DAFA3F
:102240002068C06940F008002168C8612068C06942
:1022500020F004002168C8612068C069296908432A
:102260002168C86118E02946206802F0FFFA20685A
:10227000C06940F400602168C8612068C06920F42A
:1022800080602168C8612068C069296940EA01202E
:102290002168C86100E000BF00BF012084F83D0054
:1022A00000BF002084F83C0000BF00BF85E710B5E8
:1022B00004460CB9012010BD94F83D0028B9002057
:1022C00084F83C00204600F00CF8022084F83D0021
:1022D000211D206800F03CFF012084F83D00002013
:1022E000E9E770477047000070B504460E460122CA
:1022F0003146206800F098FF0F492068884203D0DB
:102300000E492068884201D1012000E0002028B158
:102310002068406C40F40040216848642068806870
:1023200000F00705062D05D02068006840F0010088
:1023300021680860002070BD0000014000040140D9
:102340007047704770477047704770B50446002566
:1023500020684069C0F3C01594F8390021280ED1D7
:102360006DB12068406920F0800021684861206BD1
:1023700010B1206BFEF798FA204602F04BFD206862
:102380004069C0F3801594F83A0022280ED16DB14F
:102390002068406920F0400021684861606B10B1FE
:1023A000606BFEF781FA204602F024FD002070BD2C
:1023B000704700002DE9F047044620680568206852
:1023C000C668206847694FF00008C14605F00F084D
:1023D000B8F1000F0AD105F0200038B106F0200056
:1023E00020B1204602F078FCBDE8F087B8F1000F7C
:1023F00070D007F0010018B906F49070002869D079
:1024000005F0010030B106F4807018B1E06B40F0C7
:102410000100E06305F0040030B107F0010018B1DD
:10242000E06B40F00200E06305F0020030B107F01D
:10243000010018B1E06B40F00400E06305F0080013
:1024400030B107F0010018B1E06B40F00800E06324
:10245000E06B00283CD005F0200028B106F02000F9
:1024600010B1204602F038FC20684069C0F38019A2
:10247000E06B00F0080010B9B9F1000F23D020463E
:1024800002F0B8FC2068406900F04000402816D1F6
:102490002068406920F0400021684861606B50B1BD
:1024A0001748616B0865606BFEF753FA80B1606B8B
:1024B000016D88470CE02046216D884708E02046E2
:1024C000216D884704E02046216D88470020E063A5
:1024D0008AE7FFE705F0800030B106F0800018B110
:1024E000204602F04CFC7FE705F0400030B106F0DA
:1024F000400018B1204602F0BAFC75E700BF73E750
:102500008F4E000810B504460CB9012010BDA0691B
:1025100000B100E000BF94F8390060B9002084F8F1
:102520003800204600F0E0FF606E08B9154860668C
:102530002046616E8847242084F839002068C068EE
:1025400020F400502168C860204602F011FA20688B
:10255000006920F49040216808612068406920F0FB
:102560002A00216848612068C06840F40050216852
:10257000C8600020E063202084F8390084F83A0025
:102580000020C3E78925000810B586B00446142151
:1025900001A8FDF74FFEF6492068884274D100BFBC
:1025A00000200090F348006840F40020F1490860E2
:1025B0000846006800F40020009000BF00BF00BF84
:1025C00000200090EB481038006840F00100E94915
:1025D000103908600846006800F00100009000BF54
:1025E00000BF0320019002200290012003900320ED
:1025F00004900820059001A9DF48FEF7A9FBDF48F9
:10260000DF490860400548600021DD488160C16005
:102610004FF480610161002141618161C16101620A
:102620004162FEF7CFFA08B1FEF73DF900BFD4488A
:102630006063846300BFD1483030D24908604FF0F6
:10264000006048604021CF4881600021C1604FF4A4
:1026500080610161002141618161C161016241626A
:10266000FEF7B0FA08B1FEF71EF900BFC5482063B7
:10267000846300BF002211463420FEF7BDFF3420E2
:10268000FEF7AAFF72E1FFE7BF492068884278D1D0
:1026900000BF00200090B748001D006840F0100007
:1026A000B449091D08600846006800F01000009059
:1026B00000BF00BF00BF00200090AE481038006887
:1026C00040F00100AB49103908600846006800F08E
:1026D0000100009000BF00BF4FF4C06001900220D5
:1026E000029001200390032004900720059001A987
:1026F000A148FEF72DFBA548A54908604FF00060F2
:1027000048600021A2488160C1604FF4806101618E
:10271000002141618161C16101624162FEF752FAAB
:1027200008B1FEF7C0F800BF99486063846300BF3A
:1027300096487830974908604FF000604860402123
:10274000944881600021C1604FF4806101610021E3
:1027500041618161C16101624162FEF733FA08B1F2
:10276000FEF7A1F800BF8B482063846300BF0022FE
:1027700011462520FEF740FF2520FEF72DFFF5E04E
:10278000FFE785492068884276D100BF002000908D
:102790007848006840F400307649086008460068D0
:1027A00000F40030009000BF00BF00BF0020009088
:1027B00070481038006840F001006E491039086018
:1027C0000846006800F00100009000BF00BF0C2028
:1027D0000190022002900120039003200490072022
:1027E000059001A96448FEF7B3FA644848306B4984
:1027F00008604FF000604860002168488160C16057
:102800004FF480610161002141618161C161016218
:102810004162FEF7D7F908B1FEF745F800BF5F48FF
:102820006063846300BF554860305D4908604FF0C5
:102830000060486040215A4881600021C1604FF427
:1028400080610161002141618161C1610162416278
:10285000FEF7B8F908B1FEF726F800BF504820632C
:10286000846300BF002211462620FEF7C5FE262005
:10287000FEF7B2FE7AE0FFE74A492068884275D148
:1028800000BF002000903B48006840F48020394998
:1028900008600846006800F48020009000BF00BF78
:1028A00000BF0020009033481038006840F002005C
:1028B0003049103908600846006800F002000090B6
:1028C00000BF00BF4FF44060019002200290012041
:1028D0000390032004900720059001A93248FEF7D9
:1028E00037FA26481838314908604FF000604860D0
:1028F00000212E488160C1604FF480610161002198
:1029000041618161C16101624162FEF75BF908B119
:10291000FDF7C9FF00BF25486063846300BF174807
:102920001830234908604FF000604860402120487B
:1029300081600021C1604FF480610161002141612B
:102940008161C16101624162FEF73CF908B1FDF7A6
:10295000AAFF00BF16482063846300BF002211460F
:102960002720FEF749FE2720FEF736FE06B010BDF1
:10297000004C0040403802400000024040600240ED
:1029800088030020E803002000100140406402405A
:1029900048040020A804002000440040080500204E
:1029A000680500200048004000040240C8050020DF
:1029B0002806002077B581B00446154694F83A0001
:1029C000202850D1029800B115B9012004B070BD83
:1029D00000BF94F83800012801D10220F6E7012059
:1029E00084F8380000BF0298A062A5850020E0634B
:1029F000222084F83A001D48616BC8631C48616B53
:102A000008641C48616BC8640020616B086502AEF5
:102A100032682368191D2B46606BFEF749F900BF29
:102A200000200090206800680090206840680090B6
:102A300000BF00BF00BF002084F8380000BF20683E
:102A4000C06840F480702168C8602068406940F028
:102A50000100216848612068406940F04000216819
:102A600048610020B2E70220B0E70000294E0008CC
:102A7000E74D00082149000810B5034600242AB993
:102A8000D86B40F02000D863012010BD00BF93F840
:102A90003800012801D10220F7E7012083F838002F
:102AA00000BF93F83900202825D10D291CD2DFE87A
:102AB00001F007090B0D0F1113151B1B1B17190034
:102AC0001A6417E05A6415E09A6413E0DA6411E0BE
:102AD0001A650FE05A650DE09A650BE0DA6509E0CA
:102AE0005A6607E09A6605E0D86B40F02000D8638C
:102AF000012400BF17E093F8390078B90B2902D000
:102B00000C2904D101E05A6607E09A6605E0D86B0B
:102B100040F02000D863012400BF04E0D86B40F0EF
:102B20002000D863012400BF002083F8380000BFD4
:102B30002046AAE7704770472DE9F84304460D4642
:102B400016461F464FF0000994F8390020285CD142
:102B500005B116B90120BDE8F88300BF94F838002C
:102B6000012801D10220F6E7012084F8380000BFD7
:102B70000020E063212084F83900FEF7EFF9814658
:102B8000A684E6842BE0E08C401EE084A068B0F5CB
:102B9000805F16D14B46002280212046009702F02C
:102BA00080F908B10320D6E7A846B8F80000C0F3C2
:102BB000080021684860206908B9AD1C0FE06D1C51
:102BC0000DE04B46002280212046009702F069F973
:102BD00008B10320BFE715F8010B21684860E08CBD
:102BE0000028D0D14B46002240212046009702F019
:102BF00058F908B10320AEE7202084F8390000BF5F
:102C0000002084F8380000BFA5E70220A3E7704742
:102C10007047000070B506460C46154616B1012EE9
:102C200021D112E0022D00D070BD207840B20F49B2
:102C30000870607840B24870084690F9012090F919
:102C400000100BA002F0D0F90DE0022D00D0EBE750
:102C5000207840B20C490870084690F900100BA08B
:102C600002F0C2F900BF00BF00BFDDE70200002094
:102C7000666F72776172643A25642072696768745E
:102C80003A25640A0000000004000020726F74619D
:102C900074653A25640A000000BFFEE710B50248DB
:102CA000FEF764F910BD00008400002010B5024852
:102CB000FEF7C3F910BD00008400002008B500BF76
:102CC000002000903648006840F4800034490860D5
:102CD0000846006800F48000009000BF00BF00BFFD
:102CE000002000900846006840F400100860084684
:102CF000006800F40010009000BF00BF00221146E1
:102D00000B20FEF779FC0B20FEF766FC0022114633
:102D10000C20FEF771FC0C20FEF75EFC0022114631
:102D20000D20FEF769FC0D20FEF756FC002211462F
:102D30000E20FEF761FC0E20FEF74EFC002211462D
:102D40000F20FEF759FC0F20FEF746FC002211462B
:102D50001020FEF751FC1020FEF73EFC0022114629
:102D60001120FEF749FC1120FEF736FC0022114627
:102D70002F20FEF741FC2F20FEF72EFC00221146EB
:102D80003A20FEF739FC3A20FEF726FC00221146D5
:102D90004620FEF731FC4620FEF71EFC08BD000071
:102DA0003038024000B587B0142102A8FDF742FA7E
:102DB00000BF002001902F48006840F010002D490E
:102DC00008600846006800F01000019000BF00BFD6
:102DD00000BF002001900846006840F080000860B5
:102DE0000846006800F08000019000BF00BF00BFEF
:102DF000002001900846006840F001000860084685
:102E0000006800F00100019000BF00BF00BF00207B
:102E100001900846006840F002000860084600681B
:102E200000F00200019000BF00BF00227F21124885
:102E3000FEF78EF800224FF400711048FEF788F874
:102E40007F2002900120039000200490059002A9A9
:102E50000948FDF77DFF4FF40070029001200390B8
:102E600000200490059002A90448FDF771FF07B007
:102E700000BD000030380240001002400004024053
:102E800010B50B480B4908600B4848600021094801
:102E90008160C1604FF48041016100214161816125
:102EA000C1610162FEF7ACF908B1FDF7FCFC10BD91
:102EB0000054004084000020A086010000B58DB0C1
:102EC000002009900A900B900C90079008901C210C
:102ED0006846FDF7AFF92C482C4908604720486048
:102EE00000212A4881604FF47A71C160002101619C
:102EF0008161FEF77BFF08B1FDF7D5FC4FF48050F0
:102F0000099009A92148FEF7AFFF08B1FDF7CBFCF6
:102F10001E48FFF7CCF908B1FDF7C5FC002007906B
:102F2000089007A91948FEF737FF08B1FDF7BBFC69
:102F300060200090002001900290049000226946D9
:102F40001248FFF730F908B1FDF7ADFC04226946DD
:102F50000E48FFF728F908B1FDF7A5FC08226946DD
:102F60000A48FFF720F908B1FDF79DFC0C226946DD
:102F70000648FFF718F908B1FDF795FC0348FFF77D
:102F8000C3F80DB000BD000000040040980100200F
:102F900010B50B480B4908604FF4E1304860002140
:102FA00008488160C16001610C214161002181619B
:102FB000C161FFF7A7FA08B1FDF775FC10BD00006D
:102FC000004C0040D801002070B50446802002F07B
:102FD00033F905461348144908604FF4E13048605E
:102FE000002111488160C16001610C214161002113
:102FF0008161C161FFF786FA08B1FDF754FC2246F2
:1030000003210948FFF738FD07480068C06840F011
:10301000100005490968C860802229460248FFF768
:10302000C9FC70BD001001404402002070B5044688
:10303000802002F001F905461348144908604FF456
:1030400016504860002111488160C16001610C2167
:10305000416100218161C161FFF754FA08B1FDF7B8
:1030600022FC224603210948FFF706FD07480068B5
:10307000C06840F0100005490968C86080222946F0
:103080000248FFF797FC70BD00440040B0020020EA
:1030900010B50B480B4908604FF4E130486000213F
:1030A00008488160C16001610C214161002181619A
:1030B000C161FFF727FA08B1FDF7F5FB10BD00006D
:1030C000004800401C03002000BFFEE77047704727
:1030D000704710B5FEF70CFA10BD000014480068E8
:1030E00040F47000124908601248006840F0010086
:1030F0001049086000200F49083108600D48006839
:103100000D4908400B4908600C48091D0860081F5C
:10311000006820F48020091F0860002005490C3158
:1031200008604FF000600249803908607047000075
:1031300088ED00E000380240FFFFF6FE103000246A
:1031400010B50248FEF715FF10BD000098010020E1
:1031500010B50268294B98420ED0B0F1804F0BD0C9
:10316000274B984208D0274B984205D0264B9842CF
:1031700002D0264B984203D122F070024B681A43CA
:103180001E4B984220D0B0F1804F1DD01C4B98426E
:103190001AD01C4B984217D01B4B984214D01B4B93
:1031A000984211D01A4B98420ED01A4B98420BD02D
:1031B000194B984208D0194B984205D0184B9842A9
:1031C00002D0184B984203D122F44072CB681A43C4
:1031D00022F080034C6943EA040202608B68C362F8
:1031E0000B688362054B984202D0084B984201D18C
:1031F0000B6903630123436110BD0000000001401F
:103200000004004000080040000C004000040140A1
:1032100000400140004401400048014000180040C7
:10322000001C00400020004030B501F01F050124C3
:1032300004FA05F3046A9C430462046A01F01F0562
:1032400002FA05F52C43046230BD30B50C468168A6
:1032500021F47F4142EA032525432943816030BDA3
:1032600030B5056A25F010050562026A4368846975
:1032700024F4E04424F440740D6844EA052422F068
:1032800020028D6842EA0512124DA84200D103E0E7
:10329000114DA84207D100BF22F08002CD6842EA5A
:1032A000051222F040020B4DA84202D00A4DA8425E
:1032B00009D123F4806323F400634D6943EA850355
:1032C0008D6943EA8503436084614D6885630262CA
:1032D00030BD0000000001400004014010B502486C
:1032E000FFF768F810BD0000D801002038B50024B1
:1032F000164800680068C0F3001414B300BF002033
:10330000009012480068006800901048006840680B
:10331000009000BF00BF0D48006805680B480068BA
:1033200045680A48FFF711F80948006845680748EA
:10333000808D401B0549C8850846828D816AFFF74C
:1033400039FB0248FFF736F838BD00004402002080
:103350004804002038B500241A48FFF72BF8194814
:1033600000680068C0F3001414B300BF0020009090
:103370001448006800680090124800684068009097
:1033800000BF00BF0F48006805680E480068456828
:103390000C48FEF7DAFF0C48006845680948808D44
:1033A000401B0849C8850846828D816AFFF702FBE9
:1033B000044800680068C0F340140248FEF7FAFFB2
:1033C00038BD0000B00200200805002010B50248FA
:1033D000FEF7F0FF10BD00001C03002000BFFEE759
:1033E00010B52DED048B00240D480078404240B20A
:1033F00008EE100A0A4890F9010008EE900A094800
:1034000090F9000009EE100AB8EEC91AF8EEC80AE1
:10341000B8EEE80A044800F0FBF8BDEC048B10BDE0
:1034200002000020040000200000002000B593B03E
:10343000302107A8FCF7FEFE142102A8FCF7FAFED3
:1034400000BF002001902548006840F080502349CB
:1034500008600846006800F08050019000BF00BF7F
:1034600000BF002001901E48006840F480401C49C5
:1034700008600846006800F48040019000BF00BF6B
:103480000220079001200A9010200B9002200D903E
:1034900000210E9108210F91A82110910221119174
:1034A0000421129107A8FEF737FA08B1FDF7FBF9DE
:1034B0000F20029002200390002004904FF4A050AF
:1034C00005904FF480500690052102A8FEF7E6F81B
:1034D00008B1FDF7E8F913B000BD00004038024024
:1034E0000070004070477047084901640849416412
:1034F000084981640849C164084901650849416572
:10350000084981650849C16570470000112C000811
:103510000F2C0008372B0008352B0008B1230008BA
:1035200045230008492300084723000810B5024638
:103530000B460AB9002010BD0021002004E0145CF5
:103540000C44A1B2441CE0B29842F8DB0846F2E712
:1035500070B5054600240DE004EB4402074B03EB75
:10356000C202516804EB440253F83200FEF7BCFE7D
:10357000601CC4B2042CEFDB70BD000018000020FA
:1035800070B506460C461546042C00DB70BDE5B947
:1035900004EB44021D4B03EBC202918904EB44028D
:1035A00003EBC20290680022FDF7D2FC04EB440258
:1035B000164B03EBC202918A04EB440203EBC202F6
:1035C00010690122FDF7C4FC1DE0012D1BD104EBA5
:1035D00044020E4B03EBC202918904EB440203EB5D
:1035E000C20290680122FDF7B3FC04EB4402074BD2
:1035F00003EBC202918A04EB440203EBC20210699E
:103600000022FDF7A5FC00BFC0E700001800002065
:1036100010B52DED108B0446B0EE408AF0EE608AB6
:10362000B0EE419A18EE100AFCF7CEFF41EC1C0BED
:103630009FED6E0B53EC102BFCF731FF41EC1B0B95
:103640009FED6C0B53EC102BFCF7B7FE41EC1A0B03
:10365000FCF7CDFF08EE100A18EE900AFCF7B4FF55
:1036600041EC1C0B9FED610B53EC102BFCF717FF8B
:1036700041EC1B0B9FED5F0B53EC102BFCF79DFEF9
:1036800041EC1A0BFCF7B3FF08EE900A19EE100A92
:10369000FCF79AFF41EC1C0B9FED540B53EC102BE5
:1036A000FCF7FDFE41EC1B0B9FED520B53EC102B76
:1036B000FCF783FE41EC1A0BFCF799FF09EE100AA8
:1036C00019EE100AFCF780FF41EC1D0B9FED4B0B30
:1036D00053EC102BFCF771FE41EC1B0BB1EE480ACA
:1036E00030EE280A10EE101A0846FCF76DFF41EC88
:1036F0001C0B53EC1B2BFCF75AFE41EC1A0BFCF78E
:1037000076FF09EE900A19EE100AFCF75DFF41EC16
:103710001D0B9FED3A0B53EC102BFCF74EFE41ECCA
:103720001B0B38EE280A10EE101A0846FCF74CFF67
:1037300041EC1C0B53EC1B2BFCF739FE41EC1A0B34
:10374000FCF755FF0EEE100A19EE100AFCF73CFFCD
:1037500041EC1D0B9FED290B53EC102BFCF72DFEBC
:1037600041EC1B0BB1EE480A30EE280A10EE101A9D
:103770000846FCF729FF41EC1C0B53EC1B2BFCF714
:1037800075FD41EC1A0BFCF732FF0EEE900A19EEB4
:10379000100AFCF719FF41EC1D0B9FED180B53ECC1
:1037A000102BFCF70AFE41EC1B0B38EE280A10EE3A
:1037B000101A0846FCF708FF41EC1C0B53EC1B2BBE
:1037C000FCF754FD41EC1A0BFCF711FF0FEE100A49
:1037D000F0EE4F1AB0EE6E1AF0EE4E0AB0EE690A35
:1037E000204600F075F8BDEC108B10BD0000000005
:1037F00000005940000000000000494000000000A7
:103800000000F03F2DE9F0412DED068B07460C46F8
:103810001646642E01DD642000E030460646304640
:10382000FCF7ACFE41EC1A0B9FED240B53EC102B74
:10383000FCF735FE41EC190B9FED220B53EC102BDE
:10384000FCF7BBFD41EC180BFCF7A5FE85B204EBC1
:1038500044001E4901EBC000406830B904EB44004D
:1038600051F830000068456324E004EB4400174938
:1038700001EBC0004068042806D104EB440051F875
:1038800030000068856315E004EB44000F4901EB4C
:10389000C0004068082806D104EB440051F830000D
:1038A0000068C56306E004EB4400084951F83000A5
:1038B00000680564BDEC068BBDE8F08100000000E7
:1038C000000059400000000000408F401800002018
:1038D0002DE9F04F2DED048B81B08046B0EE408A8B
:1038E000F0EE608AB0EE419AF0EE619AB5EEC08AD1
:1038F000F1EE10FA01DA012000E000208146F5EE39
:10390000C08AF1EE10FA01DA012000E000208246C0
:10391000B5EEC09AF1EE10FA01DA012000E00020C5
:103920008346F5EEC09AF1EE10FA01DA012000E0CC
:1039300000200090B5EEC08AF1EE10FA02DDB0EE84
:10394000480A01E0B1EE480ABCEEC00A10EE100AC7
:10395000C4B2F5EEC08AF1EE10FA02DDB0EE680AEC
:1039600001E0B1EE680ABCEEC00A10EE100AC5B262
:10397000B5EEC09AF1EE10FA02DDB0EE490A01E0B0
:10398000B1EE490ABCEEC00A10EE100AC6B2F5EE5E
:10399000C09AF1EE10FA02DDB0EE690A01E0B1EE74
:1039A000690ABCEEC00A10EE100AC7B24A460021EE
:1039B0004046FFF7E5FD524601214046FFF7E0FD96
:1039C0005A4602214046FFF7DBFD03214046009A9C
:1039D000FFF7D6FD224600214046FFF713FF2A4697
:1039E00001214046FFF70EFF324602214046FFF715
:1039F00009FF3A4603214046FFF704FF01B0BDEC42
:103A0000048BBDE8F08F704730B50468246824F457
:103A1000802405682C60046863608468402C04D1AD
:103A20000468A2600468E16003E00468A1600468BF
:103A3000E26030BD014600208A6A8B69CBB932B1A1
:103A4000012A0DD0022A03D0032A10D10EE000BFB4
:103A5000CB6A03F08073B3F1807F00D1012007E0CF
:103A6000CB6AB3F1C07F00D1012001E000E000BFCC
:103A700034E08B69B3F5005F1AD132B1012A07D067
:103A8000022A03D0032A11D10AE000BF01200EE070
:103A9000CB6A03F08073B3F1807F00D1012006E090
:103AA000CB6AB3F1C07F00D1012000E000BF15E078
:103AB00032B1012A05D0022A04D0032A0CD103E036
:103AC00000BF00BF012008E0CB6A03F08073B3F1B0
:103AD000807F00D1012000E000BF00BF70470000E0
:103AE0000146087810381823B0FBF3F20848805CD0
:103AF000C865032A05D908686FF30900001D8865A9
:103B000003E008686FF309008865886D704700005E
:103B1000A452000870B5044694F83D5094F83E0055
:103B2000102807D1222D05D12068006820F40060FC
:103B30002168086005F02800282805D100202063AE
:103B4000282084F83D000FE02068406800F4006001
:103B5000B0F5006F04D0602D02D0202084F83D0025
:103B60000020206384F83E002068406800F4006074
:103B7000B0F5006F40D12068406820F400602168F3
:103B80004860606B90F83500012814D04048616BA4
:103B90000865606BFCF7DDFE00285BD020680068DC
:103BA00020F0010021680860202084F83D00606B4F
:103BB000016D88474EE03648A16B0865A06BFCF7A5
:103BC000C8FE002846D020684069C0F3801030B19C
:103BD00020680069616A0870606A401C6062206841
:103BE000006820F0010021680860202084F83D0072
:103BF000A06B016D88472DE094F83D0060281AD134
:103C0000202084F83D000020206420684069C0F333
:103C1000801030B120680069616A0870606A401CD9
:103C200060622068006820F001002168086020467A
:103C3000FDF79AF90EE020684069C0F3801030B1BA
:103C400020680069616A0870606A401C60622046F2
:103C5000FDF7D5FA94F83D50206C00F004000428DC
:103C600014D1282D12D12068406820F4E06021682A
:103C700048600848E06200202063202084F83D006E
:103C8000002084F83E002046FDF796FB70BD000042
:103C9000993C00080000FFFF70B50546AC6B94F836
:103CA0003D600020616BC863A16BC8632068006839
:103CB00020F480602168086000206085616B0865E1
:103CC000A16B08652068006820F001002168086089
:103CD00094F83D0060280AD1202084F83D0000209F
:103CE00084F83E0020642046FDF73EF91EE006F011
:103CF0002800282811D12068006840F001002168C0
:103D000008602068006840F4806021680860002036
:103D10002063282084F83D0005E0202084F83D0041
:103D2000002084F83E002046FDF769FA70BD0000CF
:103D300070B5044694F83D50E66A082E01D0202E56
:103D40001FD1282D1DD12148E0622068406820F451
:103D5000E060216848606FF48060216848612068F5
:103D6000006820F480602168086000202063202023
:103D700084F83D00002084F83E002046FDF71CFB3F
:103D800023E0212D1DD11148E06221202063202055
:103D900084F83D00002084F83E002068406820F44C
:103DA000E060216848606FF48060216848612068A5
:103DB000006820F48060216808602046FDF797FBCA
:103DC00003E06FF480602168486170BD0000FFFF70
:103DD00090F83E1040290ED1016D29B9416C01F0D7
:103DE000FE010268116141E0416CC9B241F001017C
:103DF000026811613AE00169B1F5804F20D190F875
:103E00003D10212905D1416C01F0FE0102681161CC
:103E100005E0416CC9B241F0010102681161416BDA
:103E200009B9816B11B3416BC96B11B9816BC96B56
:103E3000E1B10168496841F400610268516015E030
:103E4000016D41B9416C01F44071F02242EAE11187
:103E5000026811610AE0016D012907D1416C01F48A
:103E60004071F12242EAE1110268116170472DE9C7
:103E7000F04104460D46002794F83D0000F028006C
:103E800028281CD12068406820F4806021684860A0
:103E9000C5F3800000B90127C5F3C01010B9A0898F
:103EA00086B201E0208B86B200BF002084F83C007F
:103EB00000BF324639462046FDF757F808E06FF05C
:103EC00002002168486100BF002084F83C0000BF68
:103ED000BDE8F08138B590F83E20C16A036B90F8D8
:103EE0003D40222C73D1046D64B9402A0AD100BF31
:103EF000002400940468646900940468A469009430
:103F000000BF1AE1046DC4B90469B4F5404F14D17F
:103F100000BF002400940468646900940468A469E4
:103F2000009400BF00BF0468246844F480740568EE
:103F30002C60046D641C0465FFE0448D8CB900BFE7
:103F4000002400940468646900940468A4690094DF
:103F500000BF00BF0468246844F4007405682C6046
:103F6000DDE0448D012C72D111F5803F30D1046821
:103F7000246824F4806405682C600468646804F490
:103F80000064B4F5006F10D10468246824F48064E0
:103F900005682C6000BF00240094046864690094E4
:103FA0000468A469009400BFB9E000BF0024009435
:103FB0000468646900940468A469009400BF00BFA9
:103FC0000468246844F4007405682C60A7E0A9E044
:103FD000082923D0202921D0122B01D101291DD15C
:103FE00004290AD0022908D0102906D004682468C0
:103FF00024F4806405682C6005E00468246844F4B7
:10400000806405682C6000BF002400940468646923
:1040100000940468A469009400BF80E004682468E8
:1040200024F4806405682C6000BF002400940468B8
:10403000646900940468A469009400BF00BF046828
:10404000246844F4007405682C6068E0FFE7448D40
:10405000022C3BD1042910D002290ED010290CD0FB
:104060000468246824F4806405682C60046824686B
:1040700044F4006405682C6005E00468246844F496
:10408000806405682C600468646804F40064B4F516
:10409000006F10D111F5803F07D0012905D0082904
:1040A00003D0102901D0202905D10468646844F4A4
:1040B000805405686C6000BF002400940468646943
:1040C00000940468A469009400BF28E00468246890
:1040D00044F4806405682C600468646804F4006437
:1040E000B4F5006F10D111F5803F07D0012905D03C
:1040F000082903D0102901D0202905D1046864685B
:1041000044F4805405686C6000BF00240094046887
:10411000646900940468A469009400BF00BF00248F
:1041200004650AE000BF00240094046864690094F8
:104130000468A469009400BF00BF38BD38B50446C8
:1041400094F83D502068406820F4E06021684860A1
:1041500000BF00200090206840690090206800683F
:1041600040F001002168086000BF00BF20680068BF
:1041700020F48060216808602068406800F40060D6
:10418000B0F5006F42D1222D01D02A2D1FD1A06B96
:10419000006840686085608D18B1206C40F00400B4
:1041A00020642068406820F4006021684860A06BAB
:1041B000FCF7E3FB012829D04148A16B0865A06BFF
:1041C000FCF7C7FB10B3A06B016D88471EE0606B66
:1041D000006840686085608D18B1206C40F0040074
:1041E00020642068406820F4006021684860606BAB
:1041F000FCF7C3FB012809D03148616B0865606B8F
:10420000FCF7A7FB10B1606B016D8847608D18B398
:1042100020684069C0F3800048B120680069616A85
:104220000870606A401C6062608D401E6085206876
:104230004069C0F3801048B120680069616A087065
:10424000606A401C6062608D401E6085608D18B1A0
:10425000206C40F004002064206C18B12046FFF769
:1042600059FC2BE02A2D07D100202063282084F858
:104270003D002046FDF73AF994F83D0028280DD17D
:104280001048E06200202063202084F83D000020D8
:1042900084F83E002046FDF78FF80FE0206B2228BF
:1042A00001D0222D0AD100202063202084F83D0077
:1042B000002084F83E002046FDF718F938BD0000C4
:1042C000993C00080000FFFF416CC9B2026811610F
:1042D000416B09B9816B59B1416BC96B11B9816BE4
:1042E000C96B29B10168496841F4006102685160F5
:1042F0007047418D49B101680969426A1170416A8C
:10430000491C4162418D491E4185704770B5044684
:10431000E56A608D042810D12068406820F4806030
:104320002168486020680069616A0870606A401C02
:104330006062608D401E60857AE0608D03281AD12E
:104340002068406820F4806021684860042D07D010
:10435000022D05D02068006820F480602168086084
:1043600020680069616A0870606A401C6062608D44
:10437000401E60855CE0608D02284FD1012D01D088
:10438000102D06D12068006820F480602168086044
:1043900012E0042D01D0022D06D12068006840F4FF
:1043A00080602168086007E0102D05D02068006853
:1043B00040F400702168086020680069616A087034
:1043C000606A401C6062608D401E608520680069E4
:1043D000616A0870606A401C6062608D401E608582
:1043E0002068406820F4407021684860202084F8EC
:1043F0003D0094F83E00402807D1002084F83E009C
:1044000020632046FCF7DBFF12E0002084F83E002A
:10441000122020632046FCF7D0FF09E020680069E5
:10442000616A0870606A401C6062608D401E608531
:1044300070BD70B5044694F83D50608DD8B12068C9
:104440000069616A0870606A401C6062608D401E8D
:104450006085608D78B92A2D0DD12068406820F4E0
:1044600080602168486022202063282084F83D0075
:104470002046FDF73BF870BD418D49B1416A09788E
:1044800002681161416A491C4162418D491E4185A2
:10449000704770B5044694F83D50608DD8B1606A9D
:1044A000007821680861606A401C6062608D401E6F
:1044B0006085608D78B9292D0DD12068406820F481
:1044C00080602168486021202063282084F83D0016
:1044D0002046FDF70CF870BD70B5044694F83D0019
:1044E00022284AD1658D032D13D920680069616A9D
:1044F0000870606A401C6062608D401E6085608D3F
:10450000032839D12068406820F480602168486021
:1045100032E0E06A02282FD0012D00D01DBB2068B8
:10452000006820F48060216808602068406820F4FA
:10453000E0602168486020680069616A0870606A0C
:10454000401C6062608D401E6085202084F83D0024
:1045500094F83E00402807D1002084F83E002063F4
:104560002046FCF72CFF07E0002084F83E001220D4
:1045700020632046FCF721FF00BF70BD70B50446E4
:10458000E56A94F83D00212847D1608D50B1606AFA
:10459000007821680861606A401C6062608D401E7E
:1045A00060853AE0082D16D0202D14D015F5803FF7
:1045B00011D02068406820F4E06021684860112034
:1045C0002063002084F83E00202084F83D0020462F
:1045D000FCF7F4FE21E02068406820F4E0602168E8
:1045E00048602068006840F400702168086000207E
:1045F0002063202084F83D0094F83E00402806D136
:10460000002084F83E002046FCF7DAFE05E000209A
:1046100084F83E002046FCF7D1FE70BD2DE9F04144
:10462000044694F83D5094F83E70E66A208DB0BB85
:10463000212D3CD1082E16D0202E14D016F5803F07
:1046400011D02068406820F4E060216848601120A3
:104650002063002084F83E00202084F83D0020469E
:10466000FCF7ACFE7EE02068406820F4E060216842
:1046700048602068006840F40070216808600020ED
:104680002063202084F83D0094F83E00402807D1A4
:10469000002084F83E002046FCF792FE62E006E02F
:1046A000002084F83E002046FCF788FE5AE0212DC9
:1046B00003D0402F56D1222D54D1608D30B92068BF
:1046C000406820F48060216848604BE094F83E0028
:1046D00040283DD1206D98B9E06C012807D1A06C2D
:1046E000C0B221680861206D801C20653AE0A06C92
:1046F000C0F3072021680861206D401C206531E06F
:10470000206D012807D1A06CC0B221680861206D1E
:10471000401C206526E0206D022823D194F83D003E
:10472000222806D12068006840F480702168086063
:1047300018E094F83D00212814D1606A00782168BF
:104740000861606A401C6062608D401E608509E0FF
:10475000606A007821680861606A401C6062608D50
:10476000401E6085BDE8F081C16AB1F52A0F02D113
:104770000121C16205E0C16AB1F12A4F01D10821CE
:10478000C162704730B5056A25F001050562026A0D
:104790004368846924F0700424F003040D682C43FA
:1047A00022F002028D682A43104DA84200D103E096
:1047B0000F4DA84206D100BF22F00802CD682A435F
:1047C00022F00402094DA84202D0094DA84207D1A7
:1047D00023F4807323F400734D692B438D692B43BD
:1047E000436084614D684563026230BD0000014052
:1047F0000004014030B5056A25F480750562026A3F
:104800004368C46924F0700424F003040D682C4349
:1048100022F400728D6842EA0522124DA84200D1AE
:1048200003E0114DA84207D100BF22F40062CD6819
:1048300042EA052222F480620A4DA84202D00A4DC3
:10484000A84209D123F4805323F400534D6943EA6D
:1048500005138D6943EA05134360C4614D68C56360
:10486000026230BD000001400004014030B5056A1D
:1048700025F480550562036A4468C26922F4E04267
:1048800022F440720D6842EA052223F400538D6839
:1048900043EA0533084DA84202D0084DA84204D18E
:1048A00024F480444D6944EA85144460C2614D6833
:1048B0000564036230BD00000000014000040140B7
:1048C0000A46816821F0700142F0070319438160B4
:1048D000704730B50B461446026A056A25F001059B
:1048E0000562816921F0F00141EA041122F00A0217
:1048F0001A438161026230BD30B50B461446056A29
:1049000025F0100505628169026A21F4704141EACF
:10491000043122F0A00242EA03128161026230BD3A
:1049200070B505460026AC6B20684069C0F3C01620
:1049300094F83900212805D126B10020E0842046D2
:1049400000F068FA20684069C0F3801694F83A00D5
:10495000222805D126B10020E085204600F04AFA41
:10496000E06B40F01000E0632046216D884770BD89
:104970002DE9F04104462068006920F44050E168C8
:104980000843216808612169A068084361690843F8
:10499000E16940EA01052068C06849F20C6188437A
:1049A00028432168C8602068406920F44070A169EC
:1049B000084321684861E069B0F5004F7ED1C449E1
:1049C0002068884203D0C349206888425DD1FCF743
:1049D0003BFF00EBC00101EB001061684900B0FB38
:1049E000F1F06421B0FBF1F00601FCF72DFF00EBC4
:1049F000C00101EB001061684900B0FBF1F7FCF762
:104A000023FF00EBC00101EB001061684900B0FB1F
:104A1000F1F06421B0FBF1F000EBC00101EB0010FC
:104A2000A7EB8000322101EBC0006421B0FBF1F064
:104A300000F0F80006EB4006FCF706FF00EBC001B3
:104A400001EB001061684900B0FBF1F7FCF7FCFED8
:104A500000EBC00101EB001061684900B0FBF1F010
:104A60006421B0FBF1F000EBC00101EB0010A7EBFB
:104A70008000322101EBC0006421B0FBF1F000F0B6
:104A8000070030442168886020E1FCF7CDFE00EB90
:104A9000C00101EB001061684900B0FBF1F0642136
:104AA000B0FBF1F00601FCF7BFFE00EBC00101EB2B
:104AB000001061684900B0FBF1F700E045E0FCF749
:104AC000B3FE00EBC00101EB001061684900B0FBD0
:104AD000F1F06421B0FBF1F000EBC00101EB00103C
:104AE000A7EB8000322101EBC0006421B0FBF1F0A4
:104AF00000F0F80006EB4006FCF796FE00EBC00164
:104B000001EB001061684900B0FBF1F7FCF78CFE87
:104B100000EBC00101EB001061684900B0FBF1F04F
:104B20006421B0FBF1F000EBC00101EB0010A7EB3A
:104B30008000322101EBC0006421B0FBF1F000F0F5
:104B40000700304421688860C0E0614920688842DD
:104B500003D06049206888425CD1FCF775FE00EB09
:104B6000C00101EB001061688900B0FBF1F6FCF7B1
:104B70006BFE00EBC00101EB001061688900B0FB27
:104B8000F1F06421B0FBF1F000EBC00101EB00108B
:104B9000A6EB8000322101EB00106421B0FBF1F0A4
:104BA00000F0F006FCF750FE00EBC00101EB001036
:104BB00061688900B0FBF1F06421B0FBF1F006EB15
:104BC0000016FCF741FE00EBC00101EB001061682C
:104BD0008900B0FBF1F7FCF737FE00EBC00101EBF9
:104BE000001061688900B0FBF1F06421B0FBF1F0C6
:104BF00000EBC00101EB0010A7EB8000322101EBBC
:104C000000106421B0FBF1F000F00F003044216887
:104C100088605BE0FCF708FE00EBC00101EB0010D0
:104C200061688900B0FBF1F6FCF7FEFD00EBC00106
:104C300001EB001061688900B0FBF1F06421B0FB6A
:104C4000F1F000EBC00101EB0010A6EB8000322177
:104C500001EB00106421B0FBF1F000F0F006FCF76E
:104C6000E3FD00EBC00101EB001061688900B0FBBF
:104C7000F1F06421B0FBF1F006EB0016FCF7D4FD77
:104C800000EBC00101EB001061688900B0FBF1F797
:104C9000FCF7CAFD00EBC00101EB00106168890060
:104CA000B0FBF1F06421B0FBF1F000EBC00101EBCF
:104CB0000010A7EB8000322101EB00106421B0FB53
:104CC000F1F000F00F00304421688860BDE8F08109
:104CD000001001400014014070B5044694F83A00F9
:104CE00022284AD1A068B0F5805F13D1A56A206957
:104CF00040B920684068C0F308002880A06A801C82
:104D0000A06219E020684068C0B22880A06A401CF8
:104D1000A06211E0206938B920684068C1B2A26A77
:104D2000501CA062117007E02068406800F07F010D
:104D3000A26A501CA0621170E08D401E80B2E08516
:104D4000C8B92068C06820F020002168C8602068C9
:104D5000C06820F480702168C8602068406920F035
:104D6000010021684861202084F83A002046E16C67
:104D70008847002070BD0020FCE70220FAE70146CA
:104D800091F8390021282CD18868B0F5805F0FD1C7
:104D90000A6A1088C0F308000B685860086918B9DF
:104DA000086A801C086209E0086A401C086205E085
:104DB0000B6A581C086218780B685860C88C401E33
:104DC00080B2C88458B90868C06820F080000B68B9
:104DD000D8600868C06840F040000B68D8600020C8
:104DE00070470220FCE770B50446A56B2846A96C05
:104DF000884770BD0168C96821F490710268D1606C
:104E00000168496921F0010102685161202180F89F
:104E10003A1070470168C96821F0C0010268D1608A
:104E2000202180F83910704770B50546AC6B2868B2
:104E3000006800F48070B0B90020E0852068C06888
:104E400020F480702168C8602068406920F001006B
:104E5000216848612068406920F04000216848616D
:104E6000202084F83A002046E16C884770BD10B5D8
:104E700004462068C06820F040002168C8602020F7
:104E800084F839002046616C8847002010BD70B559
:104E90000546AC6B0020E085E0842046216D884704
:104EA00070BD2DE9F04104460D4617469846069E12
:104EB00021E0701CF8B12EB1FCF750F8A0EB08000F
:104EC000B04218D92068C06820F4D0702168C8604A
:104ED0002068406920F0010021684861202084F8A2
:104EE000390084F83A0000BF002084F8380000BF81
:104EF0000320BDE8F081206800682840A84201D165
:104F0000012000E00020B842D3D00020F1E70000EB
:104F100010B5002804DB0A07130E054A135406E0F7
:104F20000A07140E034A00F00F031B1FD45410BDD0
:104F300000E400E018ED00E002480068C0F3022041
:104F4000704700000CED00E02DE9F04180460C4672
:104F50001546062D05DA1BA000F046F80020BDE836
:104F6000F081E078A84207DD1BA000F03DF80CB10D
:104F70000120F4E70020F2E7002001E0411CC8B264
:104F8000A842FBDB2078AA281AD16078BB2817D169
:104F9000E678301DC1B22046FEF7C8FA0746301D3C
:104FA000215C701D205C01EB0020B84201D0002084
:104FB000D5E7A0783246211DFDF72CFE0120CEE773
:104FC0000020CCE77061636B20746F6F206C6C699C
:104FD00074746C650A0000007061636B2065727206
:104FE0006F720A00704700000FB4054B10B503A99B
:104FF000044A029800F024F810BC5DF814FB00008D
:10500000955100087800002002E008C8121F08C16E
:10501000002AFAD170477047002001E001C1121F39
:10502000002AFBD17047000010B50348FEF7EBFCE7
:105030000248FFF7D7FF10BD00000020010000204C
:105040002DE9FF4F89B09B460446002506E0252840
:105050000BD05A460B999047641C6D1C2078002891
:10506000F5D10DB02846BDE8F08F0027B8460122E3
:10507000474900E0074314F8013F203B02FA03F0E0
:105080000842F7D120782E2819D114F8010F47F0E3
:1050900004072A280ED06FF02F022078A0F13001EB
:1050A00009290CD808EB880102EB410100EB01084B
:1050B000641CF2E70A98641C50F8048B0A9020786C
:1050C0000028CED0642808D0692806D075281ED0C4
:1050D0005A460B9990476D1C58E00A994FF00A09FF
:1050E00001C90A91002802DA40422D2102E0390567
:1050F00004D52B218DF82010012103E0F90704D0FD
:105100002021F7E78A4608AE0DE00021FAE70A9968
:105110004FF00A0901C90A91F7E74946FBF783FAFC
:10512000303106F8011D0028F7D1ADEB060000F183
:105130002009780701D44FF00108C84502DDA8EB2B
:10514000090000E000208046002706E008A85A4633
:10515000C05D0B9990476D1C7F1C5745F6DB04E042
:1051600030205A460B9990476D1CB8F10001A8F108
:105170000108F5DC05E016F8010B5A460B9990473B
:105180006D1CB9F10001A9F10109F4DC641C65E7AB
:105190000928010013B50C4601231A466946024846
:1051A000FDF7CAFC00981CBD44020020FCF7ACF9D6
:1051B000FEF73CF9FDF7F6FDFDF780FDFDF760FE1B
:1051C000FDF7E6FE1348FDF7FFFE1348FDF72EFF3F
:1051D000FDF75EFFFDF772FE002010490870487071
:1051E0000FA0FFF701FF1148FEF7B2F910E01048D9
:1051F000C08D00280ADD0E48C08DC2B20C48816AFD
:105200000C48FFF7A1FE00200949C885FEF7E8F821
:10521000EDE70000E5340008E73400080200002054
:10522000737461727475700A000000000000002041
:10523000B002002001000020F0B50B30154D20F029
:1052400007010024144A0FE003688B420BD38B4202
:1052500005D95E1A43184768C3E9006700E0436850
:10526000136002C004E0021D10680028ECD1204643
:10527000002802D1286808B10020F0BD064A07487E
:105280001060074A121A22F00702C0E90024012028
:105290002860D7E7800000207C0000208C060020DA
:1052A00088080020000610160006101600000000F6
:1052B00000000000010203040607080900000000C6
:1052C00001020304E85200080000002084000000EE
:1052D000085000086C53000884000020040C0000F3
:1052E0001850000845FDFFFF00000000000000000E
:1052F0000000000010000000010000000024F40085
:10530000980100200000000000040240000200009C
:10531000001002400100000098010020040000007D
:1053200000100240040000000010024002000000D3
:105330009801002008000000001002400800000052
:105340000010024010000000980100200C00000036
:105350000010024040000000001002402000000049
:0C53600000000000000000000000000041
:040000050800018965
:00000001FF
